{
  "contractName": "Voting",
  "abi": [
    {
      "inputs": [
        {
          "internalType": "uint256",
          "name": "",
          "type": "uint256"
        }
      ],
      "name": "candidates",
      "outputs": [
        {
          "internalType": "string",
          "name": "name",
          "type": "string"
        },
        {
          "internalType": "uint256",
          "name": "voteCount",
          "type": "uint256"
        }
      ],
      "stateMutability": "view",
      "type": "function"
    },
    {
      "inputs": [
        {
          "internalType": "address",
          "name": "",
          "type": "address"
        }
      ],
      "name": "hasVoted",
      "outputs": [
        {
          "internalType": "bool",
          "name": "",
          "type": "bool"
        }
      ],
      "stateMutability": "view",
      "type": "function"
    },
    {
      "inputs": [
        {
          "internalType": "string",
          "name": "_name",
          "type": "string"
        }
      ],
      "name": "addCandidate",
      "outputs": [],
      "stateMutability": "nonpayable",
      "type": "function"
    },
    {
      "inputs": [
        {
          "internalType": "uint256",
          "name": "_candidateIndex",
          "type": "uint256"
        }
      ],
      "name": "vote",
      "outputs": [],
      "stateMutability": "nonpayable",
      "type": "function"
    },
    {
      "inputs": [],
      "name": "getCandidates",
      "outputs": [
        {
          "components": [
            {
              "internalType": "string",
              "name": "name",
              "type": "string"
            },
            {
              "internalType": "uint256",
              "name": "voteCount",
              "type": "uint256"
            }
          ],
          "internalType": "struct Voting.Candidate[]",
          "name": "",
          "type": "tuple[]"
        }
      ],
      "stateMutability": "view",
      "type": "function"
    },
    {
      "inputs": [
        {
          "internalType": "uint256",
          "name": "_candidateIndex",
          "type": "uint256"
        }
      ],
      "name": "getTotalVotes",
      "outputs": [
        {
          "internalType": "uint256",
          "name": "",
          "type": "uint256"
        }
      ],
      "stateMutability": "view",
      "type": "function"
    }
  ],
  "bytecode": "0x608060405234801561000f575f80fd5b50610e868061001d5f395ff3fe608060405234801561000f575f80fd5b5060043610610060575f3560e01c80630121b93f1461006457806306a49fce1461008057806309eef43e1461009e5780632ce35e11146100ce5780633477ee2e146100fe578063462e91ec1461012f575b5f80fd5b61007e60048036038101906100799190610588565b61014b565b005b6100886102ab565b6040516100959190610741565b60405180910390f35b6100b860048036038101906100b391906107bb565b6103a0565b6040516100c59190610800565b60405180910390f35b6100e860048036038101906100e39190610588565b6103bc565b6040516100f59190610828565b60405180910390f35b61011860048036038101906101139190610588565b61042f565b604051610126929190610889565b60405180910390f35b610149600480360381019061014491906109e3565b6104e4565b005b5f803373ffffffffffffffffffffffffffffffffffffffff1673ffffffffffffffffffffffffffffffffffffffff1681526020019081526020015f205f9054906101000a900460ff16156101d4576040517f08c379a00000000000000000000000000000000000000000000000000000000081526004016101cb90610a74565b60405180910390fd5b600180549050811061021b576040517f08c379a000000000000000000000000000000000000000000000000000000000815260040161021290610adc565b60405180910390fd5b60015f803373ffffffffffffffffffffffffffffffffffffffff1673ffffffffffffffffffffffffffffffffffffffff1681526020019081526020015f205f6101000a81548160ff021916908315150217905550600180828154811061028457610283610afa565b5b905f5260205f2090600202016001015f8282546102a19190610b54565b9250508190555050565b60606001805480602002602001604051908101604052809291908181526020015f905b82821015610397578382905f5260205f2090600202016040518060400160405290815f820180546102fe90610bb4565b80601f016020809104026020016040519081016040528092919081815260200182805461032a90610bb4565b80156103755780601f1061034c57610100808354040283529160200191610375565b820191905f5260205f20905b81548152906001019060200180831161035857829003601f168201915b50505050508152602001600182015481525050815260200190600101906102ce565b50505050905090565b5f602052805f5260405f205f915054906101000a900460ff1681565b5f6001805490508210610404576040517f08c379a00000000000000000000000000000000000000000000000000000000081526004016103fb90610adc565b60405180910390fd5b6001828154811061041857610417610afa565b5b905f5260205f209060020201600101549050919050565b6001818154811061043e575f80fd5b905f5260205f2090600202015f91509050805f01805461045d90610bb4565b80601f016020809104026020016040519081016040528092919081815260200182805461048990610bb4565b80156104d45780601f106104ab576101008083540402835291602001916104d4565b820191905f5260205f20905b8154815290600101906020018083116104b757829003601f168201915b5050505050908060010154905082565b600160405180604001604052808381526020015f815250908060018154018082558091505060019003905f5260205f2090600202015f909190919091505f820151815f0190816105349190610d81565b5060208201518160010155505050565b5f604051905090565b5f80fd5b5f80fd5b5f819050919050565b61056781610555565b8114610571575f80fd5b50565b5f813590506105828161055e565b92915050565b5f6020828403121561059d5761059c61054d565b5b5f6105aa84828501610574565b91505092915050565b5f81519050919050565b5f82825260208201905092915050565b5f819050602082019050919050565b5f81519050919050565b5f82825260208201905092915050565b5f5b838110156106135780820151818401526020810190506105f8565b5f8484015250505050565b5f601f19601f8301169050919050565b5f610638826105dc565b61064281856105e6565b93506106528185602086016105f6565b61065b8161061e565b840191505092915050565b61066f81610555565b82525050565b5f604083015f8301518482035f86015261068f828261062e565b91505060208301516106a46020860182610666565b508091505092915050565b5f6106ba8383610675565b905092915050565b5f602082019050919050565b5f6106d8826105b3565b6106e281856105bd565b9350836020820285016106f4856105cd565b805f5b8581101561072f578484038952815161071085826106af565b945061071b836106c2565b925060208a019950506001810190506106f7565b50829750879550505050505092915050565b5f6020820190508181035f83015261075981846106ce565b905092915050565b5f73ffffffffffffffffffffffffffffffffffffffff82169050919050565b5f61078a82610761565b9050919050565b61079a81610780565b81146107a4575f80fd5b50565b5f813590506107b581610791565b92915050565b5f602082840312156107d0576107cf61054d565b5b5f6107dd848285016107a7565b91505092915050565b5f8115159050919050565b6107fa816107e6565b82525050565b5f6020820190506108135f8301846107f1565b92915050565b61082281610555565b82525050565b5f60208201905061083b5f830184610819565b92915050565b5f82825260208201905092915050565b5f61085b826105dc565b6108658185610841565b93506108758185602086016105f6565b61087e8161061e565b840191505092915050565b5f6040820190508181035f8301526108a18185610851565b90506108b06020830184610819565b9392505050565b5f80fd5b5f80fd5b7f4e487b71000000000000000000000000000000000000000000000000000000005f52604160045260245ffd5b6108f58261061e565b810181811067ffffffffffffffff82111715610914576109136108bf565b5b80604052505050565b5f610926610544565b905061093282826108ec565b919050565b5f67ffffffffffffffff821115610951576109506108bf565b5b61095a8261061e565b9050602081019050919050565b828183375f83830152505050565b5f61098761098284610937565b61091d565b9050828152602081018484840111156109a3576109a26108bb565b5b6109ae848285610967565b509392505050565b5f82601f8301126109ca576109c96108b7565b5b81356109da848260208601610975565b91505092915050565b5f602082840312156109f8576109f761054d565b5b5f82013567ffffffffffffffff811115610a1557610a14610551565b5b610a21848285016109b6565b91505092915050565b7f596f75206861766520616c726561647920766f746564210000000000000000005f82015250565b5f610a5e601783610841565b9150610a6982610a2a565b602082019050919050565b5f6020820190508181035f830152610a8b81610a52565b9050919050565b7f496e76616c69642063616e6469646174652100000000000000000000000000005f82015250565b5f610ac6601283610841565b9150610ad182610a92565b602082019050919050565b5f6020820190508181035f830152610af381610aba565b9050919050565b7f4e487b71000000000000000000000000000000000000000000000000000000005f52603260045260245ffd5b7f4e487b71000000000000000000000000000000000000000000000000000000005f52601160045260245ffd5b5f610b5e82610555565b9150610b6983610555565b9250828201905080821115610b8157610b80610b27565b5b92915050565b7f4e487b71000000000000000000000000000000000000000000000000000000005f52602260045260245ffd5b5f6002820490506001821680610bcb57607f821691505b602082108103610bde57610bdd610b87565b5b50919050565b5f819050815f5260205f209050919050565b5f6020601f8301049050919050565b5f82821b905092915050565b5f60088302610c407fffffffffffffffffffffffffffffffffffffffffffffffffffffffffffffffff82610c05565b610c4a8683610c05565b95508019841693508086168417925050509392505050565b5f819050919050565b5f610c85610c80610c7b84610555565b610c62565b610555565b9050919050565b5f819050919050565b610c9e83610c6b565b610cb2610caa82610c8c565b848454610c11565b825550505050565b5f90565b610cc6610cba565b610cd1818484610c95565b505050565b5b81811015610cf457610ce95f82610cbe565b600181019050610cd7565b5050565b601f821115610d3957610d0a81610be4565b610d1384610bf6565b81016020851015610d22578190505b610d36610d2e85610bf6565b830182610cd6565b50505b505050565b5f82821c905092915050565b5f610d595f1984600802610d3e565b1980831691505092915050565b5f610d718383610d4a565b9150826002028217905092915050565b610d8a826105dc565b67ffffffffffffffff811115610da357610da26108bf565b5b610dad8254610bb4565b610db8828285610cf8565b5f60209050601f831160018114610de9575f8415610dd7578287015190505b610de18582610d66565b865550610e48565b601f198416610df786610be4565b5f5b82811015610e1e57848901518255600182019150602085019450602081019050610df9565b86831015610e3b5784890151610e37601f891682610d4a565b8355505b6001600288020188555050505b50505050505056fea2646970667358221220d496bf5d82a73f7644a99067717d24ff9697f6501c17eb90527d5ef15afe8d2764736f6c63430008150033",
  "immutableReferences": {},
  "source": "// SPDX-License-Identifier: MIT\r\npragma solidity ^0.8.0;\r\n\r\ncontract Voting {\r\n    struct Candidate {\r\n        string name;\r\n        uint voteCount;\r\n    }\r\n\r\n    mapping(address => bool) public hasVoted;\r\n    Candidate[] public candidates;\r\n\r\n    function addCandidate(string memory _name) public {\r\n        candidates.push(Candidate(_name, 0));\r\n    }\r\n\r\n    function vote(uint _candidateIndex) public {\r\n        require(!hasVoted[msg.sender], \"You have already voted!\");\r\n        require(_candidateIndex < candidates.length, \"Invalid candidate!\");\r\n\r\n        hasVoted[msg.sender] = true;\r\n        candidates[_candidateIndex].voteCount += 1;\r\n    }\r\n\r\n    function getCandidates() public view returns (Candidate[] memory) {\r\n        return candidates;\r\n    }\r\n\r\n    function getTotalVotes(uint _candidateIndex) public view returns (uint) {\r\n        require(_candidateIndex < candidates.length, \"Invalid candidate!\");\r\n        return candidates[_candidateIndex].voteCount;\r\n    }\r\n}\r\n",
  "sourcePath": "C:\\Users\\vedant\\Desktop\\New folder\\blockchain-voting\\contracts\\Voting.sol",
  "compiler": {
    "name": "solc",
    "version": "0.8.21+commit.d9974bed.Emscripten.clang"
  },
  "schemaVersion": "3.4.16",
  "updatedAt": "2024-12-02T08:00:37.353Z",
  "devdoc": {
    "kind": "dev",
    "methods": {},
    "version": 1
  },
  "userdoc": {
    "kind": "user",
    "methods": {},
    "version": 1
  }
}